{
	"_format": "hh-sol-artifact-1",
	"contractName": "AntiPanicAttackNFT",
	"sourceName": "contracts/AntiPanicAttackNFT.sol",
	"abi": [
		{
			"inputs": [],
			"stateMutability": "payable",
			"type": "constructor"
		},
		{
			"anonymous": false,
			"inputs": [
				{
					"indexed": true,
					"internalType": "address",
					"name": "owner",
					"type": "address"
				},
				{
					"indexed": true,
					"internalType": "address",
					"name": "approved",
					"type": "address"
				},
				{
					"indexed": true,
					"internalType": "uint256",
					"name": "tokenId",
					"type": "uint256"
				}
			],
			"name": "Approval",
			"type": "event"
		},
		{
			"anonymous": false,
			"inputs": [
				{
					"indexed": true,
					"internalType": "address",
					"name": "owner",
					"type": "address"
				},
				{
					"indexed": true,
					"internalType": "address",
					"name": "operator",
					"type": "address"
				},
				{
					"indexed": false,
					"internalType": "bool",
					"name": "approved",
					"type": "bool"
				}
			],
			"name": "ApprovalForAll",
			"type": "event"
		},
		{
			"anonymous": false,
			"inputs": [
				{
					"indexed": true,
					"internalType": "address",
					"name": "previousOwner",
					"type": "address"
				},
				{
					"indexed": true,
					"internalType": "address",
					"name": "newOwner",
					"type": "address"
				}
			],
			"name": "OwnershipTransferred",
			"type": "event"
		},
		{
			"anonymous": false,
			"inputs": [
				{
					"indexed": true,
					"internalType": "address",
					"name": "from",
					"type": "address"
				},
				{
					"indexed": true,
					"internalType": "address",
					"name": "to",
					"type": "address"
				},
				{
					"indexed": true,
					"internalType": "uint256",
					"name": "tokenId",
					"type": "uint256"
				}
			],
			"name": "Transfer",
			"type": "event"
		},
		{
			"inputs": [
				{
					"internalType": "address",
					"name": "to",
					"type": "address"
				},
				{
					"internalType": "uint256",
					"name": "tokenId",
					"type": "uint256"
				}
			],
			"name": "approve",
			"outputs": [],
			"stateMutability": "nonpayable",
			"type": "function"
		},
		{
			"inputs": [
				{
					"internalType": "address",
					"name": "owner",
					"type": "address"
				}
			],
			"name": "balanceOf",
			"outputs": [
				{
					"internalType": "uint256",
					"name": "",
					"type": "uint256"
				}
			],
			"stateMutability": "view",
			"type": "function"
		},
		{
			"inputs": [
				{
					"internalType": "uint256",
					"name": "tokenId",
					"type": "uint256"
				}
			],
			"name": "getApproved",
			"outputs": [
				{
					"internalType": "address",
					"name": "",
					"type": "address"
				}
			],
			"stateMutability": "view",
			"type": "function"
		},
		{
			"inputs": [
				{
					"internalType": "address",
					"name": "owner",
					"type": "address"
				},
				{
					"internalType": "address",
					"name": "operator",
					"type": "address"
				}
			],
			"name": "isApprovedForAll",
			"outputs": [
				{
					"internalType": "bool",
					"name": "",
					"type": "bool"
				}
			],
			"stateMutability": "view",
			"type": "function"
		},
		{
			"inputs": [],
			"name": "isPublicMintEnabled",
			"outputs": [
				{
					"internalType": "bool",
					"name": "",
					"type": "bool"
				}
			],
			"stateMutability": "view",
			"type": "function"
		},
		{
			"inputs": [],
			"name": "maxPerWallet",
			"outputs": [
				{
					"internalType": "uint256",
					"name": "",
					"type": "uint256"
				}
			],
			"stateMutability": "view",
			"type": "function"
		},
		{
			"inputs": [],
			"name": "maxSupply",
			"outputs": [
				{
					"internalType": "uint256",
					"name": "",
					"type": "uint256"
				}
			],
			"stateMutability": "view",
			"type": "function"
		},
		{
			"inputs": [
				{
					"internalType": "uint256",
					"name": "_quantity",
					"type": "uint256"
				}
			],
			"name": "mint",
			"outputs": [],
			"stateMutability": "payable",
			"type": "function"
		},
		{
			"inputs": [],
			"name": "mintPrice",
			"outputs": [
				{
					"internalType": "uint256",
					"name": "",
					"type": "uint256"
				}
			],
			"stateMutability": "view",
			"type": "function"
		},
		{
			"inputs": [],
			"name": "name",
			"outputs": [
				{
					"internalType": "string",
					"name": "",
					"type": "string"
				}
			],
			"stateMutability": "view",
			"type": "function"
		},
		{
			"inputs": [],
			"name": "owner",
			"outputs": [
				{
					"internalType": "address",
					"name": "",
					"type": "address"
				}
			],
			"stateMutability": "view",
			"type": "function"
		},
		{
			"inputs": [
				{
					"internalType": "uint256",
					"name": "tokenId",
					"type": "uint256"
				}
			],
			"name": "ownerOf",
			"outputs": [
				{
					"internalType": "address",
					"name": "",
					"type": "address"
				}
			],
			"stateMutability": "view",
			"type": "function"
		},
		{
			"inputs": [],
			"name": "renounceOwnership",
			"outputs": [],
			"stateMutability": "nonpayable",
			"type": "function"
		},
		{
			"inputs": [
				{
					"internalType": "address",
					"name": "from",
					"type": "address"
				},
				{
					"internalType": "address",
					"name": "to",
					"type": "address"
				},
				{
					"internalType": "uint256",
					"name": "tokenId",
					"type": "uint256"
				}
			],
			"name": "safeTransferFrom",
			"outputs": [],
			"stateMutability": "nonpayable",
			"type": "function"
		},
		{
			"inputs": [
				{
					"internalType": "address",
					"name": "from",
					"type": "address"
				},
				{
					"internalType": "address",
					"name": "to",
					"type": "address"
				},
				{
					"internalType": "uint256",
					"name": "tokenId",
					"type": "uint256"
				},
				{
					"internalType": "bytes",
					"name": "_data",
					"type": "bytes"
				}
			],
			"name": "safeTransferFrom",
			"outputs": [],
			"stateMutability": "nonpayable",
			"type": "function"
		},
		{
			"inputs": [
				{
					"internalType": "address",
					"name": "operator",
					"type": "address"
				},
				{
					"internalType": "bool",
					"name": "approved",
					"type": "bool"
				}
			],
			"name": "setApprovalForAll",
			"outputs": [],
			"stateMutability": "nonpayable",
			"type": "function"
		},
		{
			"inputs": [
				{
					"internalType": "string",
					"name": "_baseTokenUri",
					"type": "string"
				}
			],
			"name": "setBaseTokenUri",
			"outputs": [],
			"stateMutability": "nonpayable",
			"type": "function"
		},
		{
			"inputs": [
				{
					"internalType": "bool",
					"name": "_isPubicMintEnabled",
					"type": "bool"
				}
			],
			"name": "setIsPublicMintEnabled",
			"outputs": [],
			"stateMutability": "nonpayable",
			"type": "function"
		},
		{
			"inputs": [
				{
					"internalType": "bytes4",
					"name": "interfaceId",
					"type": "bytes4"
				}
			],
			"name": "supportsInterface",
			"outputs": [
				{
					"internalType": "bool",
					"name": "",
					"type": "bool"
				}
			],
			"stateMutability": "view",
			"type": "function"
		},
		{
			"inputs": [],
			"name": "symbol",
			"outputs": [
				{
					"internalType": "string",
					"name": "",
					"type": "string"
				}
			],
			"stateMutability": "view",
			"type": "function"
		},
		{
			"inputs": [
				{
					"internalType": "uint256",
					"name": "_tokenId",
					"type": "uint256"
				}
			],
			"name": "tokenURI",
			"outputs": [
				{
					"internalType": "string",
					"name": "",
					"type": "string"
				}
			],
			"stateMutability": "view",
			"type": "function"
		},
		{
			"inputs": [],
			"name": "totalSupply",
			"outputs": [
				{
					"internalType": "uint256",
					"name": "",
					"type": "uint256"
				}
			],
			"stateMutability": "view",
			"type": "function"
		},
		{
			"inputs": [
				{
					"internalType": "address",
					"name": "from",
					"type": "address"
				},
				{
					"internalType": "address",
					"name": "to",
					"type": "address"
				},
				{
					"internalType": "uint256",
					"name": "tokenId",
					"type": "uint256"
				}
			],
			"name": "transferFrom",
			"outputs": [],
			"stateMutability": "nonpayable",
			"type": "function"
		},
		{
			"inputs": [
				{
					"internalType": "address",
					"name": "newOwner",
					"type": "address"
				}
			],
			"name": "transferOwnership",
			"outputs": [],
			"stateMutability": "nonpayable",
			"type": "function"
		},
		{
			"inputs": [],
			"name": "withdraw",
			"outputs": [],
			"stateMutability": "nonpayable",
			"type": "function"
		}
	],
	"bytecode": "0x60806040526040518060400160405280600f81526020017f416e746950616e696341747461636b00000000000000000000000000000000008152506040518060400160405280600381526020017f4150410000000000000000000000000000000000000000000000000000000000815250816000908051906020019062000088929190620001bf565b508060019080519060200190620000a1929190620001bf565b505050620000c4620000b8620000f160201b60201c565b620000f960201b60201c565b67016345785d8a0000600781905550600060088190555060346009819055506007600a81905550620002d4565b600033905090565b6000600660009054906101000a900473ffffffffffffffffffffffffffffffffffffffff16905081600660006101000a81548173ffffffffffffffffffffffffffffffffffffffff021916908373ffffffffffffffffffffffffffffffffffffffff1602179055508173ffffffffffffffffffffffffffffffffffffffff168173ffffffffffffffffffffffffffffffffffffffff167f8be0079c531659141344cd1fd0a4f28419497f9722a3daafe3b4186f6b6457e060405160405180910390a35050565b828054620001cd906200026f565b90600052602060002090601f016020900481019282620001f157600085556200023d565b82601f106200020c57805160ff19168380011785556200023d565b828001600101855582156200023d579182015b828111156200023c5782518255916020019190600101906200021f565b5b5090506200024c919062000250565b5090565b5b808211156200026b57600081600090555060010162000251565b5090565b600060028204905060018216806200028857607f821691505b602082108114156200029f576200029e620002a5565b5b50919050565b7f4e487b7100000000000000000000000000000000000000000000000000000000600052602260045260246000fd5b61365980620002e46000396000f3fe6080604052600436106101665760003560e01c80636817c76c116100d1578063a0712d681161008a578063c87b56dd11610064578063c87b56dd146104f5578063d5abeb0114610532578063e985e9c51461055d578063f2fde38b1461059a57610166565b8063a0712d6814610487578063a22cb465146104a3578063b88d4fde146104cc57610166565b80636817c76c1461038957806370a08231146103b4578063715018a6146103f15780638da5cb5b1461040857806395652cfa1461043357806395d89b411461045c57610166565b80632373ac22116101235780632373ac221461028f57806323b872dd146102b85780633ccfd60b146102e157806342842e0e146102f8578063453c2310146103215780636352211e1461034c57610166565b80630116bc2d1461016b57806301ffc9a71461019657806306fdde03146101d3578063081812fc146101fe578063095ea7b31461023b57806318160ddd14610264575b600080fd5b34801561017757600080fd5b506101806105c3565b60405161018d9190612976565b60405180910390f35b3480156101a257600080fd5b506101bd60048036038101906101b89190612397565b6105d6565b6040516101ca9190612976565b60405180910390f35b3480156101df57600080fd5b506101e86106b8565b6040516101f59190612991565b60405180910390f35b34801561020a57600080fd5b506102256004803603810190610220919061242e565b61074a565b604051610232919061290f565b60405180910390f35b34801561024757600080fd5b50610262600480360381019061025d9190612332565b6107cf565b005b34801561027057600080fd5b506102796108e7565b6040516102869190612c53565b60405180910390f35b34801561029b57600080fd5b506102b660048036038101906102b1919061236e565b6108ed565b005b3480156102c457600080fd5b506102df60048036038101906102da919061222c565b610986565b005b3480156102ed57600080fd5b506102f66109e6565b005b34801561030457600080fd5b5061031f600480360381019061031a919061222c565b610b11565b005b34801561032d57600080fd5b50610336610b31565b6040516103439190612c53565b60405180910390f35b34801561035857600080fd5b50610373600480360381019061036e919061242e565b610b37565b604051610380919061290f565b60405180910390f35b34801561039557600080fd5b5061039e610be9565b6040516103ab9190612c53565b60405180910390f35b3480156103c057600080fd5b506103db60048036038101906103d691906121c7565b610bef565b6040516103e89190612c53565b60405180910390f35b3480156103fd57600080fd5b50610406610ca7565b005b34801561041457600080fd5b5061041d610d2f565b60405161042a919061290f565b60405180910390f35b34801561043f57600080fd5b5061045a600480360381019061045591906123e9565b610d59565b005b34801561046857600080fd5b50610471610deb565b60405161047e9190612991565b60405180910390f35b6104a1600480360381019061049c919061242e565b610e7d565b005b3480156104af57600080fd5b506104ca60048036038101906104c591906122f6565b611054565b005b3480156104d857600080fd5b506104f360048036038101906104ee919061227b565b61106a565b005b34801561050157600080fd5b5061051c6004803603810190610517919061242e565b6110cc565b6040516105299190612991565b60405180910390f35b34801561053e57600080fd5b50610547611148565b6040516105549190612c53565b60405180910390f35b34801561056957600080fd5b50610584600480360381019061057f91906121f0565b61114e565b6040516105919190612976565b60405180910390f35b3480156105a657600080fd5b506105c160048036038101906105bc91906121c7565b6111e2565b005b600b60009054906101000a900460ff1681565b60007f80ac58cd000000000000000000000000000000000000000000000000000000007bffffffffffffffffffffffffffffffffffffffffffffffffffffffff1916827bffffffffffffffffffffffffffffffffffffffffffffffffffffffff191614806106a157507f5b5e139f000000000000000000000000000000000000000000000000000000007bffffffffffffffffffffffffffffffffffffffffffffffffffffffff1916827bffffffffffffffffffffffffffffffffffffffffffffffffffffffff1916145b806106b157506106b0826112da565b5b9050919050565b6060600080546106c790612ef2565b80601f01602080910402602001604051908101604052809291908181526020018280546106f390612ef2565b80156107405780601f1061071557610100808354040283529160200191610740565b820191906000526020600020905b81548152906001019060200180831161072357829003601f168201915b5050505050905090565b600061075582611344565b610794576040517f08c379a000000000000000000000000000000000000000000000000000000000815260040161078b90612b73565b60405180910390fd5b6004600083815260200190815260200160002060009054906101000a900473ffffffffffffffffffffffffffffffffffffffff169050919050565b60006107da82610b37565b90508073ffffffffffffffffffffffffffffffffffffffff168373ffffffffffffffffffffffffffffffffffffffff16141561084b576040517f08c379a000000000000000000000000000000000000000000000000000000000815260040161084290612bd3565b60405180910390fd5b8073ffffffffffffffffffffffffffffffffffffffff1661086a6113b0565b73ffffffffffffffffffffffffffffffffffffffff1614806108995750610898816108936113b0565b61114e565b5b6108d8576040517f08c379a00000000000000000000000000000000000000000000000000000000081526004016108cf90612ab3565b60405180910390fd5b6108e283836113b8565b505050565b60085481565b6108f56113b0565b73ffffffffffffffffffffffffffffffffffffffff16610913610d2f565b73ffffffffffffffffffffffffffffffffffffffff1614610969576040517f08c379a000000000000000000000000000000000000000000000000000000000815260040161096090612b93565b60405180910390fd5b80600b60006101000a81548160ff02191690831515021790555050565b6109976109916113b0565b82611471565b6109d6576040517f08c379a00000000000000000000000000000000000000000000000000000000081526004016109cd90612bf3565b60405180910390fd5b6109e183838361154f565b505050565b6109ee6113b0565b73ffffffffffffffffffffffffffffffffffffffff16610a0c610d2f565b73ffffffffffffffffffffffffffffffffffffffff1614610a62576040517f08c379a0000000000000000000000000000000000000000000000000000000008152600401610a5990612b93565b60405180910390fd5b60003373ffffffffffffffffffffffffffffffffffffffff1647604051610a88906128fa565b60006040518083038185875af1925050503d8060008114610ac5576040519150601f19603f3d011682016040523d82523d6000602084013e610aca565b606091505b5050905080610b0e576040517f08c379a0000000000000000000000000000000000000000000000000000000008152600401610b0590612b33565b60405180910390fd5b50565b610b2c8383836040518060200160405280600081525061106a565b505050565b600a5481565b6000806002600084815260200190815260200160002060009054906101000a900473ffffffffffffffffffffffffffffffffffffffff169050600073ffffffffffffffffffffffffffffffffffffffff168173ffffffffffffffffffffffffffffffffffffffff161415610be0576040517f08c379a0000000000000000000000000000000000000000000000000000000008152600401610bd790612af3565b60405180910390fd5b80915050919050565b60075481565b60008073ffffffffffffffffffffffffffffffffffffffff168273ffffffffffffffffffffffffffffffffffffffff161415610c60576040517f08c379a0000000000000000000000000000000000000000000000000000000008152600401610c5790612ad3565b60405180910390fd5b600360008373ffffffffffffffffffffffffffffffffffffffff1673ffffffffffffffffffffffffffffffffffffffff168152602001908152602001600020549050919050565b610caf6113b0565b73ffffffffffffffffffffffffffffffffffffffff16610ccd610d2f565b73ffffffffffffffffffffffffffffffffffffffff1614610d23576040517f08c379a0000000000000000000000000000000000000000000000000000000008152600401610d1a90612b93565b60405180910390fd5b610d2d60006117b6565b565b6000600660009054906101000a900473ffffffffffffffffffffffffffffffffffffffff16905090565b610d616113b0565b73ffffffffffffffffffffffffffffffffffffffff16610d7f610d2f565b73ffffffffffffffffffffffffffffffffffffffff1614610dd5576040517f08c379a0000000000000000000000000000000000000000000000000000000008152600401610dcc90612b93565b60405180910390fd5b8181600c9190610de6929190612009565b505050565b606060018054610dfa90612ef2565b80601f0160208091040260200160405190810160405280929190818152602001828054610e2690612ef2565b8015610e735780601f10610e4857610100808354040283529160200191610e73565b820191906000526020600020905b815481529060010190602001808311610e5657829003601f168201915b5050505050905090565b600b60009054906101000a900460ff16610ecc576040517f08c379a0000000000000000000000000000000000000000000000000000000008152600401610ec390612bb3565b60405180910390fd5b60075481610eda9190612dae565b3414610f1b576040517f08c379a0000000000000000000000000000000000000000000000000000000008152600401610f1290612c13565b60405180910390fd5b60095481600854610f2c9190612d27565b1115610f6d576040517f08c379a0000000000000000000000000000000000000000000000000000000008152600401610f6490612a13565b60405180910390fd5b600a5481600d60003373ffffffffffffffffffffffffffffffffffffffff1673ffffffffffffffffffffffffffffffffffffffff16815260200190815260200160002054610fbb9190612d27565b1115610ffc576040517f08c379a0000000000000000000000000000000000000000000000000000000008152600401610ff390612b13565b60405180910390fd5b60005b8181101561105057600060016008546110189190612d27565b90506008600081548092919061102d90612f55565b919050555061103c338261187c565b50808061104890612f55565b915050610fff565b5050565b61106661105f6113b0565b838361189a565b5050565b61107b6110756113b0565b83611471565b6110ba576040517f08c379a00000000000000000000000000000000000000000000000000000000081526004016110b190612bf3565b60405180910390fd5b6110c684848484611a07565b50505050565b60606110d782611344565b611116576040517f08c379a000000000000000000000000000000000000000000000000000000000815260040161110d90612c33565b60405180910390fd5b600c61112183611a63565b6040516020016111329291906128cb565b6040516020818303038152906040529050919050565b60095481565b6000600560008473ffffffffffffffffffffffffffffffffffffffff1673ffffffffffffffffffffffffffffffffffffffff16815260200190815260200160002060008373ffffffffffffffffffffffffffffffffffffffff1673ffffffffffffffffffffffffffffffffffffffff16815260200190815260200160002060009054906101000a900460ff16905092915050565b6111ea6113b0565b73ffffffffffffffffffffffffffffffffffffffff16611208610d2f565b73ffffffffffffffffffffffffffffffffffffffff161461125e576040517f08c379a000000000000000000000000000000000000000000000000000000000815260040161125590612b93565b60405180910390fd5b600073ffffffffffffffffffffffffffffffffffffffff168173ffffffffffffffffffffffffffffffffffffffff1614156112ce576040517f08c379a00000000000000000000000000000000000000000000000000000000081526004016112c5906129d3565b60405180910390fd5b6112d7816117b6565b50565b60007f01ffc9a7000000000000000000000000000000000000000000000000000000007bffffffffffffffffffffffffffffffffffffffffffffffffffffffff1916827bffffffffffffffffffffffffffffffffffffffffffffffffffffffff1916149050919050565b60008073ffffffffffffffffffffffffffffffffffffffff166002600084815260200190815260200160002060009054906101000a900473ffffffffffffffffffffffffffffffffffffffff1673ffffffffffffffffffffffffffffffffffffffff1614159050919050565b600033905090565b816004600083815260200190815260200160002060006101000a81548173ffffffffffffffffffffffffffffffffffffffff021916908373ffffffffffffffffffffffffffffffffffffffff160217905550808273ffffffffffffffffffffffffffffffffffffffff1661142b83610b37565b73ffffffffffffffffffffffffffffffffffffffff167f8c5be1e5ebec7d5bd14f71427d1e84f3dd0314c0f7b2291e5b200ac8c7c3b92560405160405180910390a45050565b600061147c82611344565b6114bb576040517f08c379a00000000000000000000000000000000000000000000000000000000081526004016114b290612a93565b60405180910390fd5b60006114c683610b37565b90508073ffffffffffffffffffffffffffffffffffffffff168473ffffffffffffffffffffffffffffffffffffffff1614806115085750611507818561114e565b5b8061154657508373ffffffffffffffffffffffffffffffffffffffff1661152e8461074a565b73ffffffffffffffffffffffffffffffffffffffff16145b91505092915050565b8273ffffffffffffffffffffffffffffffffffffffff1661156f82610b37565b73ffffffffffffffffffffffffffffffffffffffff16146115c5576040517f08c379a00000000000000000000000000000000000000000000000000000000081526004016115bc906129f3565b60405180910390fd5b600073ffffffffffffffffffffffffffffffffffffffff168273ffffffffffffffffffffffffffffffffffffffff161415611635576040517f08c379a000000000000000000000000000000000000000000000000000000000815260040161162c90612a53565b60405180910390fd5b611640838383611c10565b61164b6000826113b8565b6001600360008573ffffffffffffffffffffffffffffffffffffffff1673ffffffffffffffffffffffffffffffffffffffff168152602001908152602001600020600082825461169b9190612e08565b925050819055506001600360008473ffffffffffffffffffffffffffffffffffffffff1673ffffffffffffffffffffffffffffffffffffffff16815260200190815260200160002060008282546116f29190612d27565b92505081905550816002600083815260200190815260200160002060006101000a81548173ffffffffffffffffffffffffffffffffffffffff021916908373ffffffffffffffffffffffffffffffffffffffff160217905550808273ffffffffffffffffffffffffffffffffffffffff168473ffffffffffffffffffffffffffffffffffffffff167fddf252ad1be2c89b69c2b068fc378daa952ba7f163c4a11628f55a4df523b3ef60405160405180910390a46117b1838383611c15565b505050565b6000600660009054906101000a900473ffffffffffffffffffffffffffffffffffffffff16905081600660006101000a81548173ffffffffffffffffffffffffffffffffffffffff021916908373ffffffffffffffffffffffffffffffffffffffff1602179055508173ffffffffffffffffffffffffffffffffffffffff168173ffffffffffffffffffffffffffffffffffffffff167f8be0079c531659141344cd1fd0a4f28419497f9722a3daafe3b4186f6b6457e060405160405180910390a35050565b611896828260405180602001604052806000815250611c1a565b5050565b8173ffffffffffffffffffffffffffffffffffffffff168373ffffffffffffffffffffffffffffffffffffffff161415611909576040517f08c379a000000000000000000000000000000000000000000000000000000000815260040161190090612a73565b60405180910390fd5b80600560008573ffffffffffffffffffffffffffffffffffffffff1673ffffffffffffffffffffffffffffffffffffffff16815260200190815260200160002060008473ffffffffffffffffffffffffffffffffffffffff1673ffffffffffffffffffffffffffffffffffffffff16815260200190815260200160002060006101000a81548160ff0219169083151502179055508173ffffffffffffffffffffffffffffffffffffffff168373ffffffffffffffffffffffffffffffffffffffff167f17307eab39ab6107e8899845ad3d59bd9653f200f220920489ca2b5937696c31836040516119fa9190612976565b60405180910390a3505050565b611a1284848461154f565b611a1e84848484611c75565b611a5d576040517f08c379a0000000000000000000000000000000000000000000000000000000008152600401611a54906129b3565b60405180910390fd5b50505050565b60606000821415611aab576040518060400160405280600181526020017f30000000000000000000000000000000000000000000000000000000000000008152509050611c0b565b600082905060005b60008214611add578080611ac690612f55565b915050600a82611ad69190612d7d565b9150611ab3565b60008167ffffffffffffffff811115611b1f577f4e487b7100000000000000000000000000000000000000000000000000000000600052604160045260246000fd5b6040519080825280601f01601f191660200182016040528015611b515781602001600182028036833780820191505090505b5090505b60008514611c0457600182611b6a9190612e08565b9150600a85611b799190612f9e565b6030611b859190612d27565b60f81b818381518110611bc1577f4e487b7100000000000000000000000000000000000000000000000000000000600052603260045260246000fd5b60200101907effffffffffffffffffffffffffffffffffffffffffffffffffffffffffffff1916908160001a905350600a85611bfd9190612d7d565b9450611b55565b8093505050505b919050565b505050565b505050565b611c248383611e0c565b611c316000848484611c75565b611c70576040517f08c379a0000000000000000000000000000000000000000000000000000000008152600401611c67906129b3565b60405180910390fd5b505050565b6000611c968473ffffffffffffffffffffffffffffffffffffffff16611fe6565b15611dff578373ffffffffffffffffffffffffffffffffffffffff1663150b7a02611cbf6113b0565b8786866040518563ffffffff1660e01b8152600401611ce1949392919061292a565b602060405180830381600087803b158015611cfb57600080fd5b505af1925050508015611d2c57506040513d601f19601f82011682018060405250810190611d2991906123c0565b60015b611daf573d8060008114611d5c576040519150601f19603f3d011682016040523d82523d6000602084013e611d61565b606091505b50600081511415611da7576040517f08c379a0000000000000000000000000000000000000000000000000000000008152600401611d9e906129b3565b60405180910390fd5b805181602001fd5b63150b7a0260e01b7bffffffffffffffffffffffffffffffffffffffffffffffffffffffff1916817bffffffffffffffffffffffffffffffffffffffffffffffffffffffff191614915050611e04565b600190505b949350505050565b600073ffffffffffffffffffffffffffffffffffffffff168273ffffffffffffffffffffffffffffffffffffffff161415611e7c576040517f08c379a0000000000000000000000000000000000000000000000000000000008152600401611e7390612b53565b60405180910390fd5b611e8581611344565b15611ec5576040517f08c379a0000000000000000000000000000000000000000000000000000000008152600401611ebc90612a33565b60405180910390fd5b611ed160008383611c10565b6001600360008473ffffffffffffffffffffffffffffffffffffffff1673ffffffffffffffffffffffffffffffffffffffff1681526020019081526020016000206000828254611f219190612d27565b92505081905550816002600083815260200190815260200160002060006101000a81548173ffffffffffffffffffffffffffffffffffffffff021916908373ffffffffffffffffffffffffffffffffffffffff160217905550808273ffffffffffffffffffffffffffffffffffffffff16600073ffffffffffffffffffffffffffffffffffffffff167fddf252ad1be2c89b69c2b068fc378daa952ba7f163c4a11628f55a4df523b3ef60405160405180910390a4611fe260008383611c15565b5050565b6000808273ffffffffffffffffffffffffffffffffffffffff163b119050919050565b82805461201590612ef2565b90600052602060002090601f016020900481019282612037576000855561207e565b82601f1061205057803560ff191683800117855561207e565b8280016001018555821561207e579182015b8281111561207d578235825591602001919060010190612062565b5b50905061208b919061208f565b5090565b5b808211156120a8576000816000905550600101612090565b5090565b60006120bf6120ba84612c93565b612c6e565b9050828152602081018484840111156120d757600080fd5b6120e2848285612eb0565b509392505050565b6000813590506120f9816135c7565b92915050565b60008135905061210e816135de565b92915050565b600081359050612123816135f5565b92915050565b600081519050612138816135f5565b92915050565b600082601f83011261214f57600080fd5b813561215f8482602086016120ac565b91505092915050565b60008083601f84011261217a57600080fd5b8235905067ffffffffffffffff81111561219357600080fd5b6020830191508360018202830111156121ab57600080fd5b9250929050565b6000813590506121c18161360c565b92915050565b6000602082840312156121d957600080fd5b60006121e7848285016120ea565b91505092915050565b6000806040838503121561220357600080fd5b6000612211858286016120ea565b9250506020612222858286016120ea565b9150509250929050565b60008060006060848603121561224157600080fd5b600061224f868287016120ea565b9350506020612260868287016120ea565b9250506040612271868287016121b2565b9150509250925092565b6000806000806080858703121561229157600080fd5b600061229f878288016120ea565b94505060206122b0878288016120ea565b93505060406122c1878288016121b2565b925050606085013567ffffffffffffffff8111156122de57600080fd5b6122ea8782880161213e565b91505092959194509250565b6000806040838503121561230957600080fd5b6000612317858286016120ea565b9250506020612328858286016120ff565b9150509250929050565b6000806040838503121561234557600080fd5b6000612353858286016120ea565b9250506020612364858286016121b2565b9150509250929050565b60006020828403121561238057600080fd5b600061238e848285016120ff565b91505092915050565b6000602082840312156123a957600080fd5b60006123b784828501612114565b91505092915050565b6000602082840312156123d257600080fd5b60006123e084828501612129565b91505092915050565b600080602083850312156123fc57600080fd5b600083013567ffffffffffffffff81111561241657600080fd5b61242285828601612168565b92509250509250929050565b60006020828403121561244057600080fd5b600061244e848285016121b2565b91505092915050565b61246081612e3c565b82525050565b61246f81612e4e565b82525050565b600061248082612cd9565b61248a8185612cef565b935061249a818560208601612ebf565b6124a38161308b565b840191505092915050565b60006124b982612ce4565b6124c38185612d0b565b93506124d3818560208601612ebf565b6124dc8161308b565b840191505092915050565b60006124f282612ce4565b6124fc8185612d1c565b935061250c818560208601612ebf565b80840191505092915050565b6000815461252581612ef2565b61252f8186612d1c565b9450600182166000811461254a576001811461255b5761258e565b60ff1983168652818601935061258e565b61256485612cc4565b60005b8381101561258657815481890152600182019150602081019050612567565b838801955050505b50505092915050565b60006125a4603283612d0b565b91506125af8261309c565b604082019050919050565b60006125c7602683612d0b565b91506125d2826130eb565b604082019050919050565b60006125ea602583612d0b565b91506125f58261313a565b604082019050919050565b600061260d600983612d0b565b915061261882613189565b602082019050919050565b6000612630601c83612d0b565b915061263b826131b2565b602082019050919050565b6000612653602483612d0b565b915061265e826131db565b604082019050919050565b6000612676601983612d0b565b91506126818261322a565b602082019050919050565b6000612699602c83612d0b565b91506126a482613253565b604082019050919050565b60006126bc603883612d0b565b91506126c7826132a2565b604082019050919050565b60006126df602a83612d0b565b91506126ea826132f1565b604082019050919050565b6000612702602983612d0b565b915061270d82613340565b604082019050919050565b6000612725601483612d0b565b91506127308261338f565b602082019050919050565b6000612748601083612d0b565b9150612753826133b8565b602082019050919050565b600061276b602083612d0b565b9150612776826133e1565b602082019050919050565b600061278e602c83612d0b565b91506127998261340a565b604082019050919050565b60006127b1600583612d1c565b91506127bc82613459565b600582019050919050565b60006127d4602083612d0b565b91506127df82613482565b602082019050919050565b60006127f7601383612d0b565b9150612802826134ab565b602082019050919050565b600061281a602183612d0b565b9150612825826134d4565b604082019050919050565b600061283d600083612d00565b915061284882613523565b600082019050919050565b6000612860603183612d0b565b915061286b82613526565b604082019050919050565b6000612883601083612d0b565b915061288e82613575565b602082019050919050565b60006128a6601583612d0b565b91506128b18261359e565b602082019050919050565b6128c581612ea6565b82525050565b60006128d78285612518565b91506128e382846124e7565b91506128ee826127a4565b91508190509392505050565b600061290582612830565b9150819050919050565b60006020820190506129246000830184612457565b92915050565b600060808201905061293f6000830187612457565b61294c6020830186612457565b61295960408301856128bc565b818103606083015261296b8184612475565b905095945050505050565b600060208201905061298b6000830184612466565b92915050565b600060208201905081810360008301526129ab81846124ae565b905092915050565b600060208201905081810360008301526129cc81612597565b9050919050565b600060208201905081810360008301526129ec816125ba565b9050919050565b60006020820190508181036000830152612a0c816125dd565b9050919050565b60006020820190508181036000830152612a2c81612600565b9050919050565b60006020820190508181036000830152612a4c81612623565b9050919050565b60006020820190508181036000830152612a6c81612646565b9050919050565b60006020820190508181036000830152612a8c81612669565b9050919050565b60006020820190508181036000830152612aac8161268c565b9050919050565b60006020820190508181036000830152612acc816126af565b9050919050565b60006020820190508181036000830152612aec816126d2565b9050919050565b60006020820190508181036000830152612b0c816126f5565b9050919050565b60006020820190508181036000830152612b2c81612718565b9050919050565b60006020820190508181036000830152612b4c8161273b565b9050919050565b60006020820190508181036000830152612b6c8161275e565b9050919050565b60006020820190508181036000830152612b8c81612781565b9050919050565b60006020820190508181036000830152612bac816127c7565b9050919050565b60006020820190508181036000830152612bcc816127ea565b9050919050565b60006020820190508181036000830152612bec8161280d565b9050919050565b60006020820190508181036000830152612c0c81612853565b9050919050565b60006020820190508181036000830152612c2c81612876565b9050919050565b60006020820190508181036000830152612c4c81612899565b9050919050565b6000602082019050612c6860008301846128bc565b92915050565b6000612c78612c89565b9050612c848282612f24565b919050565b6000604051905090565b600067ffffffffffffffff821115612cae57612cad61305c565b5b612cb78261308b565b9050602081019050919050565b60008190508160005260206000209050919050565b600081519050919050565b600081519050919050565b600082825260208201905092915050565b600081905092915050565b600082825260208201905092915050565b600081905092915050565b6000612d3282612ea6565b9150612d3d83612ea6565b9250827fffffffffffffffffffffffffffffffffffffffffffffffffffffffffffffffff03821115612d7257612d71612fcf565b5b828201905092915050565b6000612d8882612ea6565b9150612d9383612ea6565b925082612da357612da2612ffe565b5b828204905092915050565b6000612db982612ea6565b9150612dc483612ea6565b9250817fffffffffffffffffffffffffffffffffffffffffffffffffffffffffffffffff0483118215151615612dfd57612dfc612fcf565b5b828202905092915050565b6000612e1382612ea6565b9150612e1e83612ea6565b925082821015612e3157612e30612fcf565b5b828203905092915050565b6000612e4782612e86565b9050919050565b60008115159050919050565b60007fffffffff0000000000000000000000000000000000000000000000000000000082169050919050565b600073ffffffffffffffffffffffffffffffffffffffff82169050919050565b6000819050919050565b82818337600083830152505050565b60005b83811015612edd578082015181840152602081019050612ec2565b83811115612eec576000848401525b50505050565b60006002820490506001821680612f0a57607f821691505b60208210811415612f1e57612f1d61302d565b5b50919050565b612f2d8261308b565b810181811067ffffffffffffffff82111715612f4c57612f4b61305c565b5b80604052505050565b6000612f6082612ea6565b91507fffffffffffffffffffffffffffffffffffffffffffffffffffffffffffffffff821415612f9357612f92612fcf565b5b600182019050919050565b6000612fa982612ea6565b9150612fb483612ea6565b925082612fc457612fc3612ffe565b5b828206905092915050565b7f4e487b7100000000000000000000000000000000000000000000000000000000600052601160045260246000fd5b7f4e487b7100000000000000000000000000000000000000000000000000000000600052601260045260246000fd5b7f4e487b7100000000000000000000000000000000000000000000000000000000600052602260045260246000fd5b7f4e487b7100000000000000000000000000000000000000000000000000000000600052604160045260246000fd5b6000601f19601f8301169050919050565b7f4552433732313a207472616e7366657220746f206e6f6e20455243373231526560008201527f63656976657220696d706c656d656e7465720000000000000000000000000000602082015250565b7f4f776e61626c653a206e6577206f776e657220697320746865207a65726f206160008201527f6464726573730000000000000000000000000000000000000000000000000000602082015250565b7f4552433732313a207472616e736665722066726f6d20696e636f72726563742060008201527f6f776e6572000000000000000000000000000000000000000000000000000000602082015250565b7f536f6c64204f7574210000000000000000000000000000000000000000000000600082015250565b7f4552433732313a20746f6b656e20616c7265616479206d696e74656400000000600082015250565b7f4552433732313a207472616e7366657220746f20746865207a65726f2061646460008201527f7265737300000000000000000000000000000000000000000000000000000000602082015250565b7f4552433732313a20617070726f766520746f2063616c6c657200000000000000600082015250565b7f4552433732313a206f70657261746f7220717565727920666f72206e6f6e657860008201527f697374656e7420746f6b656e0000000000000000000000000000000000000000602082015250565b7f4552433732313a20617070726f76652063616c6c6572206973206e6f74206f7760008201527f6e6572206e6f7220617070726f76656420666f7220616c6c0000000000000000602082015250565b7f4552433732313a2062616c616e636520717565727920666f7220746865207a6560008201527f726f206164647265737300000000000000000000000000000000000000000000602082015250565b7f4552433732313a206f776e657220717565727920666f72206e6f6e657869737460008201527f656e7420746f6b656e0000000000000000000000000000000000000000000000602082015250565b7f457863656564732057616c6c6574206d696e7473000000000000000000000000600082015250565b7f5769746864726177204661696c65642100000000000000000000000000000000600082015250565b7f4552433732313a206d696e7420746f20746865207a65726f2061646472657373600082015250565b7f4552433732313a20617070726f76656420717565727920666f72206e6f6e657860008201527f697374656e7420746f6b656e0000000000000000000000000000000000000000602082015250565b7f2e6a736f6e000000000000000000000000000000000000000000000000000000600082015250565b7f4f776e61626c653a2063616c6c6572206973206e6f7420746865206f776e6572600082015250565b7f4d696e74696e67206e6f7420656e61626c656400000000000000000000000000600082015250565b7f4552433732313a20617070726f76616c20746f2063757272656e74206f776e6560008201527f7200000000000000000000000000000000000000000000000000000000000000602082015250565b50565b7f4552433732313a207472616e736665722063616c6c6572206973206e6f74206f60008201527f776e6572206e6f7220617070726f766564000000000000000000000000000000602082015250565b7f57726f6e67206d696e742076616c756500000000000000000000000000000000600082015250565b7f546f6b656e20646f6573206e6f74206578697374210000000000000000000000600082015250565b6135d081612e3c565b81146135db57600080fd5b50565b6135e781612e4e565b81146135f257600080fd5b50565b6135fe81612e5a565b811461360957600080fd5b50565b61361581612ea6565b811461362057600080fd5b5056fea2646970667358221220e006f7cf835fe31454116ab5bd1cc3845cc630a3bcc0d5f78e884aa3938cb3fd64736f6c63430008040033",
	"linkReferences": {},
	"deployedLinkReferences": {}
}